{
  "contractName": "RestaurantReview",
  "abi": [
    {
      "inputs": [],
      "stateMutability": "nonpayable",
      "type": "constructor"
    },
    {
      "anonymous": false,
      "inputs": [
        {
          "indexed": false,
          "internalType": "uint256",
          "name": "id",
          "type": "uint256"
        },
        {
          "indexed": false,
          "internalType": "string",
          "name": "title",
          "type": "string"
        },
        {
          "indexed": false,
          "internalType": "string",
          "name": "description",
          "type": "string"
        },
        {
          "indexed": false,
          "internalType": "uint256",
          "name": "rating",
          "type": "uint256"
        }
      ],
      "name": "ReviewSubmitted",
      "type": "event"
    },
    {
      "inputs": [
        {
          "internalType": "uint256",
          "name": "",
          "type": "uint256"
        }
      ],
      "name": "reviews",
      "outputs": [
        {
          "internalType": "uint256",
          "name": "id",
          "type": "uint256"
        },
        {
          "internalType": "string",
          "name": "title",
          "type": "string"
        },
        {
          "internalType": "string",
          "name": "description",
          "type": "string"
        },
        {
          "internalType": "uint256",
          "name": "rating",
          "type": "uint256"
        }
      ],
      "stateMutability": "view",
      "type": "function",
      "constant": true
    },
    {
      "inputs": [
        {
          "internalType": "string",
          "name": "_title",
          "type": "string"
        },
        {
          "internalType": "string",
          "name": "_description",
          "type": "string"
        },
        {
          "internalType": "uint256",
          "name": "_rating",
          "type": "uint256"
        }
      ],
      "name": "submitReview",
      "outputs": [],
      "stateMutability": "nonpayable",
      "type": "function"
    },
    {
      "inputs": [],
      "name": "getReviewCount",
      "outputs": [
        {
          "internalType": "uint256",
          "name": "",
          "type": "uint256"
        }
      ],
      "stateMutability": "view",
      "type": "function",
      "constant": true
    },
    {
      "inputs": [
        {
          "internalType": "uint256",
          "name": "_id",
          "type": "uint256"
        }
      ],
      "name": "getReviewById",
      "outputs": [
        {
          "internalType": "string",
          "name": "",
          "type": "string"
        },
        {
          "internalType": "string",
          "name": "",
          "type": "string"
        },
        {
          "internalType": "uint256",
          "name": "",
          "type": "uint256"
        }
      ],
      "stateMutability": "view",
      "type": "function",
      "constant": true
    }
  ],
  "bytecode": "0x60806040523480156200001157600080fd5b5060006040518060800160405280600081526020016040518060400160405280600881526020017f526576696577203100000000000000000000000000000000000000000000000081525081526020016040518060400160405280601881526020017f5468697320697320746865206669727374207265766965770000000000000000815250815260200160058152509080600181540180825580915050600190039060005260206000209060040201600090919091909150600082015181600001556020820151816001019080519060200190620000f29291906200033c565b506040820151816002019080519060200190620001119291906200033c565b5060608201518160030155505060006040518060800160405280600181526020016040518060400160405280600881526020017f526576696577203200000000000000000000000000000000000000000000000081525081526020016040518060400160405280601981526020017f5468697320697320746865207365636f6e642072657669657700000000000000815250815260200160048152509080600181540180825580915050600190039060005260206000209060040201600090919091909150600082015181600001556020820151816001019080519060200190620001fe9291906200033c565b5060408201518160020190805190602001906200021d9291906200033c565b5060608201518160030155505060006040518060800160405280600281526020016040518060400160405280600881526020017f526576696577203300000000000000000000000000000000000000000000000081525081526020016040518060400160405280601881526020017f54686973206973207468652074686972642072657669657700000000000000008152508152602001600381525090806001815401808255809150506001900390600052602060002090600402016000909190919091506000820151816000015560208201518160010190805190602001906200030a9291906200033c565b506040820151816002019080519060200190620003299291906200033c565b5060608201518160030155505062000451565b8280546200034a90620003ec565b90600052602060002090601f0160209004810192826200036e5760008555620003ba565b82601f106200038957805160ff1916838001178555620003ba565b82800160010185558215620003ba579182015b82811115620003b95782518255916020019190600101906200039c565b5b509050620003c99190620003cd565b5090565b5b80821115620003e8576000816000905550600101620003ce565b5090565b600060028204905060018216806200040557607f821691505b602082108114156200041c576200041b62000422565b5b50919050565b7f4e487b7100000000000000000000000000000000000000000000000000000000600052602260045260246000fd5b610a0480620004616000396000f3fe608060405234801561001057600080fd5b506004361061004c5760003560e01c80631405aa25146100515780635dd302c11461006d578063709dc7fb1461009f578063e83ddcea146100bd575b600080fd5b61006b6004803603810190610066919061064a565b6100f0565b005b610087600480360381019061008291906106c9565b6101d8565b6040516100969392919061077a565b60405180910390f35b6100a76103ce565b6040516100b491906107df565b60405180910390f35b6100d760048036038101906100d291906106c9565b6103da565b6040516100e794939291906107fa565b60405180910390f35b6000808054905090506000604051806080016040528083815260200186815260200185815260200184815250908060018154018082558091505060019003906000526020600020906004020160009091909190915060008201518160000155602082015181600101908051906020019061016b92919061052a565b50604082015181600201908051906020019061018892919061052a565b506060820151816003015550507fe3ea5237ff6e48a417e92bd54cb110d9f833781db000d1bcb6be94d5ce17fa5a818585856040516101ca94939291906107fa565b60405180910390a150505050565b606080600080805490508410610223576040517f08c379a000000000000000000000000000000000000000000000000000000000815260040161021a906107bf565b60405180910390fd5b600080858154811061025e577f4e487b7100000000000000000000000000000000000000000000000000000000600052603260045260246000fd5b90600052602060002090600402016040518060800160405290816000820154815260200160018201805461029190610916565b80601f01602080910402602001604051908101604052809291908181526020018280546102bd90610916565b801561030a5780601f106102df5761010080835404028352916020019161030a565b820191906000526020600020905b8154815290600101906020018083116102ed57829003601f168201915b5050505050815260200160028201805461032390610916565b80601f016020809104026020016040519081016040528092919081815260200182805461034f90610916565b801561039c5780601f106103715761010080835404028352916020019161039c565b820191906000526020600020905b81548152906001019060200180831161037f57829003601f168201915b505050505081526020016003820154815250509050806020015181604001518260600151935093509350509193909250565b60008080549050905090565b600081815481106103ea57600080fd5b906000526020600020906004020160009150905080600001549080600101805461041390610916565b80601f016020809104026020016040519081016040528092919081815260200182805461043f90610916565b801561048c5780601f106104615761010080835404028352916020019161048c565b820191906000526020600020905b81548152906001019060200180831161046f57829003601f168201915b5050505050908060020180546104a190610916565b80601f01602080910402602001604051908101604052809291908181526020018280546104cd90610916565b801561051a5780601f106104ef5761010080835404028352916020019161051a565b820191906000526020600020905b8154815290600101906020018083116104fd57829003601f168201915b5050505050908060030154905084565b82805461053690610916565b90600052602060002090601f016020900481019282610558576000855561059f565b82601f1061057157805160ff191683800117855561059f565b8280016001018555821561059f579182015b8281111561059e578251825591602001919060010190610583565b5b5090506105ac91906105b0565b5090565b5b808211156105c95760008160009055506001016105b1565b5090565b60006105e06105db8461087e565b61084d565b9050828152602081018484840111156105f857600080fd5b6106038482856108d4565b509392505050565b600082601f83011261061c57600080fd5b813561062c8482602086016105cd565b91505092915050565b600081359050610644816109b7565b92915050565b60008060006060848603121561065f57600080fd5b600084013567ffffffffffffffff81111561067957600080fd5b6106858682870161060b565b935050602084013567ffffffffffffffff8111156106a257600080fd5b6106ae8682870161060b565b92505060406106bf86828701610635565b9150509250925092565b6000602082840312156106db57600080fd5b60006106e984828501610635565b91505092915050565b60006106fd826108ae565b61070781856108b9565b93506107178185602086016108e3565b610720816109a6565b840191505092915050565b60006107386011836108b9565b91507f496e76616c6964207265766965772049440000000000000000000000000000006000830152602082019050919050565b610774816108ca565b82525050565b6000606082019050818103600083015261079481866106f2565b905081810360208301526107a881856106f2565b90506107b7604083018461076b565b949350505050565b600060208201905081810360008301526107d88161072b565b9050919050565b60006020820190506107f4600083018461076b565b92915050565b600060808201905061080f600083018761076b565b818103602083015261082181866106f2565b9050818103604083015261083581856106f2565b9050610844606083018461076b565b95945050505050565b6000604051905081810181811067ffffffffffffffff8211171561087457610873610977565b5b8060405250919050565b600067ffffffffffffffff82111561089957610898610977565b5b601f19601f8301169050602081019050919050565b600081519050919050565b600082825260208201905092915050565b6000819050919050565b82818337600083830152505050565b60005b838110156109015780820151818401526020810190506108e6565b83811115610910576000848401525b50505050565b6000600282049050600182168061092e57607f821691505b6020821081141561094257610941610948565b5b50919050565b7f4e487b7100000000000000000000000000000000000000000000000000000000600052602260045260246000fd5b7f4e487b7100000000000000000000000000000000000000000000000000000000600052604160045260246000fd5b6000601f19601f8301169050919050565b6109c0816108ca565b81146109cb57600080fd5b5056fea264697066735822122040a539b963ac909e9da2d60df1d68b970fe76b0c2d1288f144d0c10bf9e389ac64736f6c63430008000033",
  "immutableReferences": {},
  "source": "// SPDX-License-Identifier: MIT\r\npragma solidity ^0.8.0;\r\n\r\ncontract RestaurantReview {\r\n    struct Review {\r\n        uint256 id;\r\n        string title;\r\n        string description;\r\n        uint256 rating;\r\n    }\r\n\r\n    Review[] public reviews;\r\n\r\n    constructor() {\r\n        // Add some hardcoded reviews during contract deployment\r\n        reviews.push(Review(0, \"Review 1\", \"This is the first review\", 5));\r\n        reviews.push(Review(1, \"Review 2\", \"This is the second review\", 4));\r\n        reviews.push(Review(2, \"Review 3\", \"This is the third review\", 3));\r\n    }\r\n\r\n    event ReviewSubmitted(uint256 id, string title, string description, uint256 rating);\r\n\r\n    function submitReview(string memory _title, string memory _description, uint256 _rating) public {\r\n        uint256 reviewId = reviews.length;\r\n        reviews.push(Review(reviewId, _title, _description, _rating));\r\n        emit ReviewSubmitted(reviewId, _title, _description, _rating);\r\n    }\r\n\r\n    function getReviewCount() public view returns (uint256) {\r\n        return reviews.length;\r\n    }\r\n\r\n    function getReviewById(uint256 _id) public view returns (string memory, string memory, uint256) {\r\n        require(_id < reviews.length, \"Invalid review ID\");\r\n        Review memory review = reviews[_id];\r\n        return (review.title, review.description, review.rating);\r\n    }\r\n}\r\n",
  "sourcePath": "C:\\Users\\i\\Documents\\GitHub\\Examensarbete2\\smartcontract\\contracts\\restaurantreview.sol",
  "compiler": {
    "name": "solc",
    "version": "0.8.0+commit.c7dfd78e.Emscripten.clang"
  },
  "schemaVersion": "3.4.14",
  "updatedAt": "2023-07-01T14:26:20.228Z",
  "networkType": "ethereum",
  "devdoc": {
    "kind": "dev",
    "methods": {},
    "version": 1
  },
  "userdoc": {
    "kind": "user",
    "methods": {},
    "version": 1
  }
}